:020000040000fa
:08000000b6100400000000002e
:020000040000fa
:04000800d202000020
:020000040000fa
:04000c00d20200001c
:020000040000fa
:04001000d202000018
:020000040000fa
:04001400d202000014
:020000040000fa
:04001800d202000010
:020000040000fa
:04001c00d20200000c
:020000040000fa
:04002000d202000008
:020000040000fa
:04002400d202000004
:020000040000fa
:04002800d202000000
:020000040000fa
:04002c00d2020000fc
:020000040000fa
:04003000d2020000f8
:020000040000fa
:04003400d2020000f4
:020000040000fa
:04003800d2020000f0
:020000040000fa
:04003c00d2020000ec
:020000040000fa
:04004000d2020000e8
:020000040000fa
:04004400d2020000e4
:020000040000fa
:04004800d2020000e0
:020000040000fa
:04004c00d2020000dc
:020000040000fa
:04005000d2020000d8
:020000040000fa
:04005400d2020000d4
:020000040000fa
:04005800d2020000d0
:020000040000fa
:04005c00b2020000ec
:020000040000fa
:04006000d2020000c8
:020000040000fa
:04006400d2020000c4
:020000040000fa
:04006800d2020000c0
:020000040000fa
:04006c00d2020000bc
:020000040000fa
:04007000d2020000b8
:020000040000fa
:04007400d2020000b4
:020000040000fa
:04007800d2020000b0
:020000040000fa
:04007c00d2020000ac
:020000040000fa
:04008000d2020000a8
:020000040000fa
:04008400d2020000a4
:020000040000fa
:04008800d2020000a0
:020000040000fa
:04008c00d20200009c
:020000040000fa
:04009000d202000098
:020000040000fa
:04009400d202000094
:020000040000fa
:04009800d202000090
:020000040000fa
:04009c00d20200008c
:020000040000fa
:0400a000d202000088
:020000040000fa
:0400a400d202000084
:020000040000fa
:0400a800d202000080
:020000040000fa
:0400ac00d20200007c
:020000040000fa
:0400b000d202000078
:020000040000fa
:0400b400d202000074
:020000040000fa
:0400b800d202000070
:020000040000fa
:0400bc00d20200006c
:020000040000fa
:0400c000d202000068
:020000040000fa
:0400c400d202000064
:020000040000fa
:0400c800d202000060
:020000040000fa
:0400cc00d20200005c
:020000040000fa
:0400d000d202000058
:020000040000fa
:0400d400d202000054
:020000040000fa
:0400d800d202000050
:020000040000fa
:0400dc00d20200004c
:020000040000fa
:0400e000d202000048
:020000040000fa
:0400e400d202000044
:020000040000fa
:0400e800d202000040
:020000040000fa
:0400ec00d20200003c
:020000040000fa
:0400f000d202000038
:020000040000fa
:0400f400d202000034
:020000040000fa
:0400f800d202000030
:020000040000fa
:0400fc00d20200002c
:020000040000fa
:04010000d202000027
:020000040000fa
:04010400d202000023
:020000040000fa
:04010800d20200001f
:020000040000fa
:04010c00d20200001b
:020000040000fa
:04011000d202000017
:020000040000fa
:04011400d202000013
:020000040000fa
:04011800d20200000f
:020000040000fa
:04011c00d20200000b
:020000040000fa
:04012000d202000007
:020000040000fa
:04012400d202000003
:020000040000fa
:04012800d2020000ff
:020000040000fa
:04012c00d2020000fb
:020000040000fa
:04013000d2020000f7
:020000040000fa
:04013400d2020000f3
:020000040000fa
:04013800d2020000ef
:020000040000fa
:04013c00d2020000eb
:020000040000fa
:04014000d2020000e7
:020000040000fa
:04014400d2020000e3
:020000040000fa
:04014800d2020000df
:020000040000fa
:04014c00d2020000db
:020000040000fa
:04015000d2020000d7
:020000040000fa
:04015400d2020000d3
:020000040000fa
:04015800d2020000cf
:020000040000fa
:04015c00d2020000cb
:020000040000fa
:04016000d2020000c7
:020000040000fa
:04016400d2020000c3
:020000040000fa
:04016800d2020000bf
:020000040000fa
:04016c00d2020000bb
:020000040000fa
:04017000d2020000b7
:020000040000fa
:04017400d2020000b3
:020000040000fa
:04017800d2020000af
:020000040000fa
:04017c00d2020000ab
:020000040000fa
:04018000d2020000a7
:020000040000fa
:04018400d2020000a3
:020000040000fa
:04018800d20200009f
:020000040000fa
:04018c00d20200009b
:020000040000fa
:04019000d202000097
:020000040000fa
:04019400d202000093
:020000040000fa
:04019800d20200008f
:020000040000fa
:04019c00d20200008b
:020000040000fa
:0401a000d202000087
:020000040000fa
:0401a400d202000083
:020000040000fa
:0401a800d20200007f
:020000040000fa
:0401ac00d20200007b
:020000040000fa
:0401b000d202000077
:020000040000fa
:0401b400d202000073
:020000040000fa
:0401b800d20200006f
:020000040000fa
:0401bc00d20200006b
:020000040000fa
:0401c000d202000067
:020000040000fa
:0401c400d202000063
:020000040000fa
:0401c800d20200005f
:020000040000fa
:0401cc00d20200005b
:020000040000fa
:0401d000d202000057
:020000040000fa
:0401d400d202000053
:020000040000fa
:0401d800d20200004f
:020000040000fa
:0401dc00d20200004b
:020000040000fa
:0401e000d202000047
:020000040000fa
:0401e400d202000043
:020000040000fa
:0401e800d20200003f
:020000040000fa
:0401ec00d20200003b
:020000040000fa
:0401f000d202000037
:020000040000fa
:0401f400d202000033
:020000040000fa
:0401f800d20200002f
:020000040000fa
:0401fc00d20200002b
:020000040000fa
:04020000d202000026
:020000040000fa
:04020400d202000022
:020000040000fa
:04020800d20200001e
:020000040000fa
:04020c00d20200001a
:020000040000fa
:04021000d202000016
:020000040000fa
:04021400d202000012
:020000040000fa
:04021800d20200000e
:020000040000fa
:04021c00d20200000a
:020000040000fa
:04022000d202000006
:020000040000fa
:04022400d202000002
:020000040000fa
:04022800d2020000fe
:020000040000fa
:04022c00d2020000fa
:020000040000fa
:04023000d2020000f6
:020000040000fa
:04023400d2020000f2
:020000040000fa
:04023800d2020000ee
:020000040000fa
:04023c00d2020000ea
:020000040000fa
:04024000d2020000e6
:020000040000fa
:04024400d2020000e2
:020000040000fa
:04024800d2020000de
:020000040000fa
:04024c00d2020000da
:020000040000fa
:04025000d2020000d6
:020000040000fa
:04025400d2020000d2
:020000040000fa
:04025800d2020000ce
:020000040000fa
:04025c00d2020000ca
:020000040000fa
:04026000d2020000c6
:020000040000fa
:04026400d2020000c2
:020000040000fa
:04026800d2020000be
:020000040000fa
:04026c00d2020000ba
:020000040000fa
:04027000d2020000b6
:020000040000fa
:04027400d2020000b2
:020000040000fa
:04027800d2020000ae
:020000040000fa
:04027c00d2020000aa
:020000040000fa
:04028000d2020000a6
:020000040000fa
:10040000a1028800800478000000eb001f00370084
:10041000e284440054a0b4009905ba00e284440088
:1004200054a0b4009906ba00e284440054a0b40079
:100430000006eb00476fde00fd07b200ae0188004a
:10044000636ce10003003a000ad801000000eb00f1
:100450000e003700606ce10008003a00004deb0030
:100460000a05e800020039003420ec000af0a00080
:100470008b05e900f9ff3e00040037006168e100e8
:10048000010032000086eb000b00070019c7ba001c
:100490000e04e0001905ba0003003a000a00e0006b
:1004a000dbff3a0000000600fe07b200ae02880043
:1004b0008a047800f5ff37000cd0a300e20f4d004e
:1004c0001c00390089027800354dba000a05e800a1
:1004d000020039003420ec000af0a0008b05e9008e
:1004e0000f003200254dba000a05e800020039006d
:1004f0003420ec000af0a0008b05e900080032006f
:100500000c00e0000600320015cdba000a05e80034
:10051000020039003420ec000af0a0008b05e9004d
:100520008984e80054a0b4000b00e000e2ff3a0028
:10053000000006009902ba00055d78008b05e9000d
:10054000f7ff3200c82ade00055d78008b05e90060
:10055000f3ff32000c00e000f1ff320019ddba00b9
:10056000eeff370000a0fe003600f800849fbe00ba
:10057000869fbe000000fa0001a8a900db03070067
:100580007d0407009f0007001b0007000080fa00a1
:100590004f03be004f02be003600f9000080fe008f
:1005a000004006000040da000000fe0000000500e8
:020000040000fa
:1005b0000000fa00c228ef001a01070045aea900aa
:1005c000ed010700803e20004088880000002800e0
:1005d0001046880000000000408880000000e00015
:1005e000fdff3a0045aea800cc0407007f020700db
:0805f0004a020700fcff37007e
:020000040000fa
:1005f8000000fa0040102100104078008040e80018
:100608004010210001487800401021001040780077
:10061800f34f500024003600401021008040eb00ca
:100628000148780031888000803e2000808f50008b
:100638000e003600207280004e00de00614060002f
:1006480000c0ea00614060000080fb0061006000bb
:100658004e00dd002172800001e0a1000100700061
:10066800207288000000eb00308888003088800005
:100678000000e80030888800408880000000e00022
:1006880003003200408880000000e90040888800ac
:10069800708880000000e00003003200708880004d
:1006a8000000e900708888000080fa000000060059
:1006b8000000fa0010c0b30000f1b7000080fa0093
:1006c800000006000000fa000071ef0003000700b8
:1006d800458ea8000080fa00000006000000fa001d
:1006e80000302c00e3c1200011322400d2bc2a00c3
:1006f80082097800810978001061880000302c0098
:10070800e3c1200011322400d2bc2a0082097800fb
:10071800810978001062880000302c00e3c12000b5
:1007280011322400d2bc2a0082097800810978009d
:10073800106388000080fa00000006000000fa003c
:1007480000202c00e3c1200011322400d2bc2a0072
:1007580082097800810978001061880000202c0047
:10076800e3c1200011322400d2bc2a00820978009b
:10077800810978001062880000202c00e3c1200065
:1007880011322400d2bc2a0082097800810978003d
:10079800106388000080fa00000006000000fa00dc
:1007a80000002c00e3c1200011322400d2bc2a0032
:1007b80082097800810978001061880000002c0007
:1007c800e3c1200011322400d2bc2a00820978003b
:1007d800810978001062880000002c00e3c1200025
:1007e80011322400d2bc2a008209780081097800dd
:1007f800106388000080fa00000006000000fa007c
:10080800108880000000e00003003200108880009b
:100818000000e9001088880000d1bf000080fb00bc
:10082800e10f50000c003200e10f500003003c00c3
:100838000000e000060032002e003700e30f5000f1
:100848000b003200e40f500013003200290037007b
:100858009cff070027003700b8ff0700803e2000f4
:100868001088880030c0b30000f1b70021003700bd
:10087800108880000000e0001d003a0097ff070084
:1008880031020700c5ff0700458ea90040c0b3002c
:1008980000f1b700170037008e020700b08880000b
:1008a800640060000000e00006003200f18980006a
:1008b8000000240080804000201a210001087800f0
:1008c80005003700f189800000002c00808040007e
:1008d800201a210001087800201a21001000780051
:1008e800110407002a040700000000000100370077
:0c08f800000000000080fa000000060074
:020000040000fa
:100904000000fa00f0de2f0000708800022eef00d5
:10091400042eef00062eef00082eef000a2eef0043
:100924000c2eef003000200070708800f03620009c
:1009340080708800122eef00142eef00162eef00a8
:10094400182eef001a2eef001c2eef00701020005e
:10095400f070880070c3270000718800222eef0019
:10096400242eef00262eef00282eef002a2eef0073
:100974002c2eef001000200070718800f0ef2f0083
:1009840080718800322eef00342eef00362eef00f7
:10099400382eef003a2eef003c2eef00f0ff20003f
:1009a4000072880000002f001072880000002f00e1
:1009b40020728800462eef00482eef004a2eef00ea
:1009c4004c2eef004e2eef000080eb0000738800e9
:1009d400622eef00642eef00662eef00682eef000b
:1009e4006a2eef006c2eef000080fa000000060073
:1009f4000000fa0080772700703588006007200027
:100a0400803588000080fa00000006000000fa002b
:100a1400700020007e0007000080fa00000006003d
:100a24000000fa00b6ff0700f1ff07008900070085
:100a340007000700980007000f0007005e0007008a
:100a440062000700f1ff07000080fa0000000600c2
:100a54000000fa0013e1a9000003200090088800b8
:100a64000a21ef00a00e20007008880013e1a800fe
:100a74000080fa00000006000000fa0001eca90062
:100a8400002cef00022cef004020200000618800c1
:100a940000002c00e3c1200011322400d2bc2a0043
:100aa40082097800810978001061880030002000f4
:100ab400e3c1200011322400d2bc2a00820978004c
:100ac400810978002061880080bb20004061880093
:100ad400c0122000306188002a2cef00000f200093
:100ae4006061880000002100a061880080bb2000b4
:100af40090618800402020000062880000002c00e3
:100b0400e3c1200011322400d2bc2a0082097800fb
:100b1400810978001062880030002000e3c12000c1
:100b240011322400d2bc2a0082097800810978009d
:100b34002062880080bb200040628800c012200030
:100b4400306288004a2cef00000f200060628800a9
:100b5400402020000063880000002c00e3c1200036
:100b640011322400d2bc2a0082097800810978005d
:100b74001063880030002000e3c1200011322400fb
:100b8400d2bc2a0082097800810978002063880099
:100b940080bb200040638800c012200030638800be
:100ba4006a2cef00000f20006063880001eca800ad
:100bb4000080fa00000006000000fa00800c20000b
:100bc400105488000080fa00000006000000fa00bb
:100bd40021e3a900c00120000019880000202000a2
:100be4001019880040002000201988003223ef00eb
:100bf4002623ef0030302000401988002e23ef0018
:100c04003023ef0021e3a8000080fa000000060072
:100c14000200fa00000f780001a8a9001e00780065
:100c240000407800674060000080fb0067006000bf
:100c34004400dd0032428000f1f82f0081006100a1
:100c4400010070003042880021a8a8000080fa004a
:100c5400000006000000fa0041e2a9004022ef0073
:100c6400e0462000101288004422ef0041e2a80070
:100c74000080fa00000006000000fa0000002300d3
:100c840040128800408a800063006000408a880027
:100c94000080fa00000006000000fa0010002000a6
:100ca400000a88004221ef0010002000400a88005a
:100cb4004a21ef0010002000800a88005221ef0032
:100cc4000080fa00000006000200fa00000f78001d
:100cd4000028a90000a8a90004a8a9001e00780003
:100ce40000407800674060000080fb0067006000ff
:100cf4004400dd0002428000f1f82f008100610011
:100d040001007000004288001e0078000040780056
:100d1400674060000080fb00670060004400dd0065
:100d240012428000f1f82f00810061000100700080
:100d3400104288001e007800004078006740600080
:100d44000080fb00670060004400dd0092428000e8
:100d5400f1f82f00810061000100700090428800ca
:100d64002028a80020a8a80024a8a8000080fa0031
:100d7400000006000000fa0010c0b3006c00070079
:0c0d8400bdff07000080fa000000060020
:020000040000fa
:100d90000000fa00e08c8000f10f500003003e00dc
:100da0000ab1a8000a91a90008003700e08c800071
:100db000fe0f5000030036000ab1a9000a91a800f6
:100dc000020037000ab1a9000a91a9000080fa00c8
:100dd000000006000000fa00508880000000e000db
:100de00002003a001031ef001c003700b08880008c
:100df000610060000000e000010032001631a80030
:100e0000508880006f0060000000e00003003200a6
:100e10001000200080888800100037005088800073
:100e2000700060000000e00003003200200020009d
:100e30008088880009003700518880000002200067
:100e4000008060000000e00003003200300020005d
:100e500080888800010037001031ef008088800012
:100e6000004078000cf1b7000080fa000000060096
:100e70000200fa008188800090888000808f5000f6
:100e80000500320045eea9001431ef000e31ef00ed
:100e90008088800090888800708880000000e000d2
:100ea0001c003a00a00f2000708888009088800005
:100eb0000000e00017003200a08880000000e80079
:100ec000a0888800a08880000000d100000f780072
:100ed000908880009e0f500008003900a088800094
:100ee000610060000000e00002003a0045eea90049
:100ef0000800370045eea800060037009088800003
:100f0000640040009e0f500001003a001431ef00d1
:100f100045eea8000080fa00000006000000fa007c
:100f20009bff0700abff0700d1ff07000080fa001e
:040f300000000600b7
:020000040000fa
:100f34000200fa00004f78009e40780061c0600013
:100f44000080fb00610060004200dd00b188800089
:100f54000120a10001007000b08888000071ef003a
:100f64001611a9000080fa00000006000000fa0033
:100f7400b0888000610060000000e0000e003a00cc
:100f8400508880000000e00015003a00d08c8000fa
:100f94000000e00012003200d08a8000610060008e
:100fa4000000e0000e0032001611a8005a11a9003a
:100fb400c0fd07000a003700b088800062006000ae
:100fc4000000e00003003a00d08c80000000e00044
:100fd40003003a001611a9001631a900bafd070052
:100fe4000080fa00000006000000fa000301070078
:0c0ff400deff07000080fa00000006008d
:020000040000fa
:101000000400fa0050c0b300104798000040eb0005
:10101000004f78000000eb0010079800107380006c
:101020004800de00614060000080fb00610060005d
:101030004200dd009e0090000120a1000100700030
:1010400010079800107380004700de0061406000c8
:101050000080fb0061006000000040009e009000e6
:101060000110a100010070001007980010738000ab
:101070004600de00614060000080fb00610060000f
:101080009e0090000100a100010070001007980070
:101090001e80fb009e00900000014000c011210056
:1010a00000004100010878001e4fe8001e40780053
:1010b000e24f5000d7ff36001e4090000040e9008c
:1010c000104798001e4090000004e00005003a0020
:1010d0000a11a8000a31a9000a51a9000a71a90041
:1010e00004003700e18880001e009000808f5000cf
:1010f000c6ff3a001e0090002089880021898000e8
:1011000010898000808f50000f00320020898000fd
:1011100010898800208980000000e000060032006d
:1011200020898000e60f500003003e0010002000e0
:1011300030898800040037000a11a9000a31a8008c
:101140000a51a9000a71a9000080fa0000000600f7
:101150000400fa000000eb00508988000000eb005a
:10116000608988000000eb00d08988000000eb0057
:10117000e0898800a2ff07004431ef004631ef000c
:1011800091018000010f780000202000900188006c
:1011900060ed2800100798002089800000004000c2
:1011a0009e00900000804000100798001e009000f4
:1011b00010007800108a88009e0078009101880055
:1011c0000000eb00308988000080fa000000060073
:1011d0000400fa00308980000000e00014003200b2
:1011e0000000eb00308988000000eb004089880097
:1011f000f50207001d0307000000e0003300320085
:101200005289800004402f0015002000048fbe008a
:10121000431421001e0278009e0290001100090074
:1012200042aad80081097800308a88002700370058
:1012300040898000e10f40001900320040898000a1
:101240000000e80040898800b088800064006000e9
:101250000000e00009003200028a8000138a80004a
:10126000208a8000318a800002004000838048008c
:10127000008a8800118a880014003700028a8000e2
:10128000138a8000208a8000318a8000000051008b
:1012900081805900008a8800118a88000b0037007d
:1012a000b0888000610060000000e00005003200ae
:1012b0000a11a8000a31a8000a51a9000a71a90060
:1012c000020037000000eb0040898800108a80008f
:1012d000f08988000080fa00000006000000fa0093
:1012e00047ff0700baff07000080fa000000060071
:020000040000fa
:1012f0000000fa0045eea900207280004f00de00d9
:10130000004078000080fb00610060004e00dd00be
:101310002172800001e0a1000100700020728800ad
:10132000207280004e00de00614060000080fb0003
:10133000610060004d00dd002172800001d0a1003d
:101340000100700020728800207280004d00de00d5
:10135000614060000080fb00610060004c00dd0027
:101360002172800001c0a10001007000207288007d
:101370000080fa00000006000000fa0045eea80018
:10138000207280004f00de00004078000080fb00eb
:10139000610060004e00dd002172800001e0a100cc
:1013a0000100700020728800207280004e00de0074
:1013b000614060000080fb00610060004d00dd00c6
:1013c0002172800001d0a10001007000207288000d
:1013d000207280004d00de00614060000080fb0054
:1013e000610060004c00dd002172800001c0a1009e
:1013f00001007000207288000080fa0000000600e2
:020000040000fa
:101400000000fa0010718000620060000000e0003f
:1014100008003a0069030700107180006200600054
:101420000000e00008003a0010c0b30000f0b70070
:101430000500370000d0bf00e14f500002003a0025
:101440000070ef005a11a8000080fa0000000600aa
:020000040000fa
:101450000000fa00201a210010009000800078009f
:101460000000280000804000908a8800201a210097
:1014700020009000800078000000280000804000dc
:10148000a08a8800201a2100300090008000780097
:101490000000280000804000b08a8800201a210047
:1014a00010009000800078000000280000804000bc
:1014b000c08a8800908a80004400de00508a88003c
:1014c000a08a80004400de00608a8800b08a800024
:1014d0004400de00708a8800c08a80004400de007c
:1014e000808a88000080fa00000006000200fa00ee
:1014f00000128000620060000000e00043003a003b
:10150000d3ff0700408a80000000e8008000400010
:101510008014210000804000100f7800f0ff2000b0
:101520001e0f6000000023001e0f7000408a800024
:10153000e10f500010003200e10f500005003900ab
:10154000e20f500016003200e30f50001d00320081
:1015500026003700350ea800052ea9000000000067
:10156000000000000000000000000000000000007b
:10157000000000001d003700052ea800000000003c
:10158000000000000000000000000000000000005b
:1015900000000000052ea9001ef0a0001300370077
:1015a000052ea800350ea900000000000000000074
:1015b000000000000000000000000000000000002b
:1015c0000a003700350ea8000000000000000000ef
:1015d000000000000000000000000000000000000b
:1015e000350ea9001ef0a000000000009e0078004b
:1015f00041128800408a80000000e800408a88008c
:10160000408a800063006000408a88000080fa0001
:0416100000000600d0
:020000040000fa
:101614000600fa00000f78001107980022079800ce
:101624001e007800e90f5000060036001e00780006
:10163400a1052000810f500003003600a005200002
:1016440001003700a0002000000f78001e00900069
:10165400e90f5000060036001e009000a10520008e
:10166400810f500003003600a00520000100370060
:10167400a0002000100798002e009000e90f5000f1
:10168400060036002e009000a1052000810f5000b6
:1016940003003600a005200001003700a000200050
:1016a400200798001e007800fe00b9003061880011
:1016b4001e009000fe00b900306288002e009000e9
:1016c400fe00b900306388000080fa0000000600c4
:020000040000fa
:1016d4000000fa00f18b8000d08b80000080400075
:1016e400f08b8800008c80000000e800008c8800eb
:1016f400018c8000f0032000808f5000070036002a
:10170400f08b80004600de00e08b88000000eb00d8
:10171400f08b88000000eb00008c88000080fa0049
:10172400000006000000fa00418c8000208c80003c
:1017340000804000408c8800508c80000000e8004d
:10174400508c8800508c8000e70f50000700360052
:10175400408c80004300de00308c88000000eb00e9
:10176400408c88000000eb00508c88000080fa0058
:10177400000006000000fa00c08c8000e40f500056
:1017840012003200e60f50001e003200e30f50003a
:1017940029003a0000188000d08b880010188000bf
:1017a400e08a880020188000308b88003018800080
:1017b400808b8800c6ff0700404020004019880045
:1017c40040002000c08c88002700370000188000eb
:1017d400208c880010188000e08a8800201880007f
:1017e400308b880030188000808b8800cdff070084
:1017f400606020004019880060002000c08c8800d0
:101804001900370000188000708c880010188000c0
:10181400e08a880020188000308b8800301880000f
:10182400808b880030302000401988003000200070
:10183400c08c88000c00370000188000d08b880012
:1018440010188000e08a880020188000308b8800ff
:1018540030188000808b88004040200040198800a8
:1018640040002000c08c88000080fa0000000600c0
:101874000400fa00e18b8000500320000100b8004e
:10188400008fbe001e0078009e0090004609dd0017
:101894004a00de0000007100ca08de00008fbe00ae
:1018a4001e007800e08c88000080fa00000006002a
:1018b4000600fa00308c80004600dd00000f78003e
:1018c40080bb20001e0178000010b80010079800ab
:1018d40021079800ae009000010f7800b01220009c
:1018e4009e007800808f500003003e000000eb0053
:1018f400d08c8800060037001e00780081bb2000d1
:10190400810f50000100360080bb2000d08c88007d
:101914000080fa00000006000000fa00e4ff07005f
:0c192400d3ff07000080fa00000006005e
:020000040000fa
:101930000600fa00200798002e00900063000700c0
:10194000018d8000201a210011009800f18c800088
:1019500040db2d000180b800008fbe009e0090008b
:10196000008d80000080d10080805000201a21006e
:1019700021009800008d80000080d1008000ea00e6
:101980001e00900080805000201a21003100980035
:101990000080fa00000006001400fa00201a21005e
:1019a00090009000d08c80000180b8004007980023
:1019b00051079800201a2100a0009000d08c8000d0
:1019c0000180b8006007980071079800201a210074
:1019d000b0009000d08c80000180b800000f98000b
:1019e000110f9800de009000606d20000080400024
:1019f000000f7800fe009000606d20000080400025
:101a0000100798009e089000606d20000080400044
:101a100020079800f00e20009e007800808f500074
:101a200002003e00000f2000000f78009e00900092
:101a3000f00e2000808f500002003e00000f2000ba
:101a400010079800ae009000f00e2000808f50002c
:101a500002003e00000f20002007980080ac20000c
:101a6000300798003e0090009e007800808f500064
:101a700002003600be009000010f78009e0090002a
:101a80003e009000808f500002003600be009000a3
:101a900011079800ae0090003e009000808f50002b
:101aa00002003600be009000210798009e007800da
:101ab000316188009e00900031628800ae00900085
:101ac000316388000080fa000000060022028000d6
:101ad00093018000829fbe00010820000100b80031
:101ae0008180400000c2fe00a2db2800828140000d
:101af000130278000000e00009003a00f48c88002e
:101b00000144b0008280400011007800008d880000
:101b10004f01be00220288009301880000000600e9
:101b200081c0e80082814000130378008602120021
:101b30000583b80004824300f48c8800e143b000c0
:101b4000828140001302780081c0e8008281400059
:101b500013037800860212000580b800048040005c
:101b6000008d88004f01be0022028800930188008a
:041b7000000006006b
:020000040000fa
:101b740000000000480600008c0c0000c8120000a1
:101b8400f91800001a1f0000282500001f2b000070
:101b9400fb300000ba360000563c0000ce41000085
:101ba4001c4700003f4c000033510000f555000075
:101bb400825a0000d75e0000f1620000cf66000088
:101bc4006d6a0000c96d0000e2700000b57300008a
:101bd40041760000847800007c7a0000297c0000b3
:101be400897d00009c7e0000617f0000d87f00009a
:101bf400ff7f0000d87f0000617f00009c7e000012
:101c0400897d0000297c00007c7a00008478000033
:101c140041760000b5730000e2700000c96d000059
:101c24006d6a0000cf660000f1620000d75e00001c
:101c3400825a0000f5550000335100003f4c00006b
:101c44001c470000ce410000563c0000ba3600009c
:101c5400fb3000001f2b0000282500001a1f000085
:101c6400f9180000c81200008c0c0000480600009f
:101c740000000000b8f9000074f3000038ed000023
:101c840007e70000e6e00000d8da0000e1d4000035
:101c940005cf000046c90000aac3000032be000000
:101ca400e4b80000c1b30000cdae00000baa0000f0
:101cb4007ea5000029a100000f9d000031990000bd
:101cc40093950000379200001e8f00004b8c00009b
:101cd400bf8900007c87000084850000d783000052
:101ce40077820000648100009f800000288000004b
:101cf40001800000288000009f80000064810000b3
:101d040077820000d7830000848500007c87000070
:101d1400bf8900004b8c00001e8f0000379200002a
:101d240093950000319900000f9d000029a1000047
:101d34007ea500000baa0000cdae0000c1b30000d8
:101d4400e4b8000032be0000aac3000046c9000087
:101d540005cf0000e1d40000d8da0000e6e000007e
:101d640007e7000038ed000074f30000b8f9000044
:101d740000000000aa6a00005515000000400000a1
:101d8400ffbf000055950000aaea00000000000013
:101d94005595000000400000aa6a0000aaea00006d
:101da400ffbf000055150000000000000080000087
:101db400aa2a00005555000055d50000aaaa000023
:041dc400000000001b
:020000040000fa
:101dc8000400fa00b0888000640060000000e000b1
:101dd8001100320091018000010f780000202000de
:101de80090018800a0eb2800100798002089800047
:101df800000040009e0090000080400010079800fe
:101e08001e00900010007800108a88009e0078005c
:101e1800910188001000370091018000010f7800bf
:101e2800002020009001880080ec2800100798000e
:101e380020898000000040009e0090000080400043
:101e4800100798001e00900010007800108a880083
:101e58009e007800910188004031ef000080fa0070
:101e6800000006000a00fa000000eb00000f7800ee
:101e780000408000620060000000e0000a003200bc
:101e8800610a8000010f7800a20a8000020f780022
:101e98000028a90000a8a90004a8a900200a800019
:101ea800508988001d003700014080000002200092
:101eb800008060000000e0000a003200230a800071
:101ec800030f7800a40a8000040f78000028a900f6
:101ed80000a8a90004a8a900600a80005089880009
:101ee8000e003700214080000002200000806000c2
:101ef8000000e00009003200250a8000050f780084
:101f0800610a8000010f78000028a90000a8a90034
:101f180004a8a900a00a800050898800518980007f
:101f280060898000808f500004003900518980004a
:101f380060898000008f50000300370051898000bd
:101f480060898000008f5000508980006089880077
:101f58001e0078000000e0005d003200d08980009b
:101f68006900400080004000c0112100008040004e
:101f78001e087800d0898000e50f500003003e005d
:101f8800d08980000000e800d0898800d0898000ce
:101f9800e50f5000040036000000eb00d0898800ef
:101fa80010002000e0898800e08980000000e0003f
:101fb80037003200708980008000eb00100798001d
:101fc800210798001e019000ae01900080898000d2
:101fd8008000eb0002004000838048001007980052
:101fe800210798001e019000ae01900090898000a2
:101ff8008000eb0002004000838048001007980032
:10200800210798001e019000ae019000a089800071
:102018008000eb0002004000838048001007980011
:10202800210798001e019000ae019000b089800041
:102038008000eb00020040008380480010079800f1
:10204800210798001e019000ae019000c089800011
:102058008000eb00020040008380480010079800d1
:10206800210798001e019000ae01900032079800e9
:1020780043079800620020003e029000ce029000c4
:102088001100090042aad8005089880008003700ca
:10209800d0898000e10f500003003a0050b02600bc
:1020a80050898800020037009e0278005589880010
:1020b8005189800060152000808f500002003e008a
:1020c80060152000508988001000200001003700aa
:0c20d8000000eb000080fa000000060091
:020000040000fa
:1020e4005a110000020000008000000000100000ef
:1020f40002000000800000005c11000042000000ab
:102104008000000048110000120000008000000060
:10211400041100000600000080000000001100000f
:1021240004000000800000000a1100000c00000000
:10213400800000009e1100000c00000080000000e0
:102144001611000006000000800000001c110000b1
:10215400240000008000000040110000080000007e
:082164008000000000000000f3
:020000040000fa
:10216c00310020000000eb000000e900feff3a0007
:10217c008100e900fbff3a000f052100800f2100d0
:10218c000001880000002000203a88006002200036
:10219c00303a880000002100010025000018eb00f7
:1021ac0001016800fdff3a00d802040000000000a5
:020000040000fa
:1021bc00210020000000eb000000e900feff3a00c7
:0c21cc008100e900fbff3a000000060063
:020000040000fa
:020000040002f8
:04afe000ceff0000a0
:020000040000fa
:020000040002f8
:04afe400ffff00006b
:020000040000fa
:020000040002f8
:04afe8007fff0000e7
:020000040000fa
:020000040002f8
:04afec009eff0000c4
:020000040000fa
:020000040002f8
:04aff0007bff0000e3
:020000040000fa
:020000040002f8
:04aff400ffffff005c
:00000001FF
